:020000040800F2
:10000000B8040020F11400081115000813150008A9
:1000100000000000000000000000000000000000E0
:10002000000000000000000000000000151500089E
:100030000000000000000000171500081915000856
:100040001307000800000000630700080B100008F9
:1000500045140008B3140008BF1400082115000857
:1000600000000000231500082515000827150008CA
:10007000291500082B1500082D15000800000000A8
:100080002F15000831150008331500083515000834
:1000900037150008391500083B1500083D15000804
:1000A0003F150008411500084315000845150008D4
:1000B0004715000849150008FEB507001BD0A74CDE
:1000C0003878C00719D5A16838200840E168802633
:1000D000B602102808D18807800F032806D07A6856
:1000E0007008824234D13BE00828F8D120680640ED
:1000F00003D07868002800D1B3E1387880077AD53A
:10010000A16838200840E268B849B94E10284DD19E
:100110009207920F022A4BD0F8680028206800D17D
:1001200094E001403869084320602168A00D08432D
:10013000206000F0B9FA3D0007002068400500D5B6
:100140007CE000F0B1FAC01B0328F6D30320FEBD0B
:10015000A021C9028A4206D1226881001143216090
:100160002168084306E02168A24808402060216811
:10017000A14808402060786800280BD000F094FA6D
:10018000050020683040B8D100F08EFA401B652889
:10019000F7D3DBE700F088FA050020683040ACD0E8
:1001A00000F082FA401B6528F7D3CFE70028B3D1CF
:1001B0002268520502D5FA68002A3ED062681640CD
:1001C0007A6912023243626000280ED12068014031
:1001D000386908432060A448012122689204520F24
:1001E000914000F07BFAA1490860A148006800F046
:1001F00091FA002821D10226387800070AD5A06894
:1002000038210140182930D1206E304002D0B86921
:10021000002812D03878400700D4A8E000200190D0
:10022000A06838210140202941D1E06D064000D16D
:100230009DE0B868002800D099E012E160680640AF
:1002400068690002304360602F00D4E789490140AB
:10025000216000F029FA050020684005CBD500F0A8
:1002600023FA401B0328F7D370E7B8690028216EF2
:100270000ED001200843206600F016FA0500206E1B
:100280003040C7D100F010FA401B0328F7D35DE7D8
:1002900001208143216600F007FA0500206E3040FE
:1002A000B8D000F001FA401B0328F7D34EE7F00660
:1002B000E16B014008D1E16B0143E163E16B084070
:1002C00000900098012001906B4E3068C00511D459
:1002D000A00D009031680843306000F0E5F905009A
:1002E00031680098084005D100F0DEF9401B032872
:1002F000F6D32BE7B9680120012905D0052907D1DC
:10030000E26D04211143E165E16D0843E06506E01B
:10031000E16D8143E165E16D04208143E1650226E1
:10032000B86800280CD000F0BFF90500E06D30403F
:1003300016D100F0B9F9401BA4498842F6D305E76D
:1003400000F0B2F90500E06D304009D000F0ACF9E2
:10035000401B9E498842F6D3F8E600BF00100240D9
:100360000198002803D0E16B99480840E063F969DF
:10037000002955D0A26838201040102852D080267D
:10038000B60494480229216838D10840206000F062
:100390008BF905002068304005D000F085F9401B3E
:1003A0000328F7D3D2E6E1688B480840396A014355
:1003B000786A0843B96A09020143F86A0843396B4D
:1003C0000143E1602068710801432160E168F000A9
:1003D0000843E06000F068F90500206830401FD154
:1003E00000F062F9401B0328F7D3AFE6FFC7FFFF19
:1003F000FF80FFFFFFFFFEFFFFFFFBFF08402060C5
:1004000000F052F905002068304005D000F04CF9AA
:10041000401B0328F7D399E6E06898490140E16062
:100420000020FEBD01291CD0E0688207920F396AC6
:100430008A4216D170220240796A8A4211D1FE2185
:10044000C9010140BA6A120291420AD1F82292030C
:100450000240F96A8A4204D1400F4007396B884252
:10046000DED00120FEBD00000024F4000C000020BE
:1004700008000020FFFEFFFF00700040F8B50700F5
:1004800067D000917E4800684107490F009881427B
:1004900018D27B4E306807218843009901433160B0
:1004A00000F002F9009C050030684007400FA042B0
:1004B00007D000F0F9F8401B44498842F4D30320E8
:1004C000F2BD00943868704E022108420CD04007FB
:1004D00004D5B268E020C0011043B060B26869483A
:1004E0001040BA680243B2600724E4433878C0077A
:1004F00032D57868012818D13168890329D5B168C7
:1005000021400843B06000F0CFF83D000700B1681B
:10051000382008406968C90088421CD000F0C4F83F
:10052000C11B2A488142F2D3C9E7022802D13168AF
:10053000890103E0002803D131684905DFD408E0D0
:10054000032803D1326E1140D9D102E0F26D11407F
:10055000D5D10120F2BD2F0000984949096849070B
:10056000490F884217D2464800680440009820434B
:100570004349086000F098F8009D04004048006876
:100580004007400FA84206D000F08EF8011B0F482C
:100590008142F3D393E73878400705D5B1683B48EB
:1005A0000840F9680143B16000F018F83849B268B2
:1005B0001205120F9200895CC906C90EC840354960
:1005C00008603548006800F0A5F8F2BD8913000006
:1005D000FFFFFFEFFFFFFFFE8C80C11F30B507213B
:1005E0002F48294D3823AA681A4006D12B680122CA
:1005F000DB0A19408A4011001EE04208AC681C402A
:10060000082C01D1100030BDAC681C40102C16D154
:10061000EB68EC6824092140491C7F249B079B0F51
:10062000032B00D1100000F059F8E968090A0C40CA
:100630006043E968490F491C00F050F830BDA868D4
:100640001840202802D18020000230BDA868034055
:10065000182B02D1FA20C00130BD002030BD0F4858
:1006600002680C4800680F495204520F9200895CDE
:10067000C906C90EC840704700000000FCFFFEEF2D
:1006800000200240FFF0FFFF00100240FF8FFFFF3D
:10069000481300080C000020080000200810024049
:1006A0000024F4004814000801484068704700BF67
:1006B00000000020CA0F00D0494203105A400DD05C
:1006C00004B500D3404200F009F8009AD20701D3E4
:1006D0004942124200D5404204BD0000094214D0F4
:1006E00088420FD30122030C01D10004120400231D
:1006F00000185B418B4200D35B1A5241F8D31900BA
:100700001000704701000020704708B500F028F87D
:1007100008BDFEE770B5060000240F4D29780029BA
:1007200016D0FA208000FFF7D9FF01000B480068BF
:10073000FFF7D4FF00F038F8002809D1042E07D2C3
:10074000002231000020C04300F029F8AE6000E034
:100750000124200070BD00BF000000200C0000201C
:100760007047FEE710B5C30018221A40FF249440DA
:10077000E3438907090E9140020004D4144892080B
:100780009200821806E0134A0007000F083880081C
:1007900080001218106803401943116010BD80B525
:1007A000FFF7E0FF01BD000010B5401E80214904A5
:1007B000884201D3012010BD074C60600321002056
:1007C000C043FFF7CFFF0020A0600721216010BDCC
:1007D00000E400E01CED00E010E000E038B50400AB
:1007E00001D1012032BD250084356868002803D17D
:1007F0002870200000F067FA2420686022681068E2
:10080000012188431060A06A002802D0200000F077
:10081000D9F8200000F018F8012811D0226850689B
:10082000084901405160226890682A2188439060FD
:1008300022681068012101431160200000F030F9A6
:1008400032BD0000FFB7FFFFF8B505000027002408
:10085000286802688D491140AA680A432969114332
:100860006A690A43E9691143016042688849114095
:10087000EA680A4342608168864A0A40A9691143CE
:100880002A6A0A438260C16A0F2291436A6A0A4354
:10089000C26281491023814A904208D108688007CA
:1008A000800F1ED0022810D011D303280BE0A84AD5
:1008B000904210D109680C20084012D0042806D0BC
:1008C000082802D00C2804D00CE002230AE00423FC
:1008D00008E0082306E09F49884202D09E498842EA
:1008E00000D1002331A69D4880221202E96991427D
:1008F0002AD1002B06D0022B08D0042B1FD0082BA6
:1009000020D049E0FFF7ABFE002846D0696800918F
:10091000696A4900715AFFF7E1FE400000994908F1
:1009200040180099FFF7DAFE010010398C4A914215
:1009300032D2114601400007400F084324E0FFF780
:100940004DFEE1E71000E1E7002B06D0022B08D0B6
:10095000042B1CD0082B1DD01EE0FFF780FE0028C2
:100960001BD069680091696A4900715AFFF7B6FEA9
:100970000099490840180099FFF7B0FE0200103AAC
:1009800077498A4208D280B22968C86005E0FFF73B
:1009900025FEE4E71000E4E7012429006831012086
:1009A00048800880CF600F612000F2BD0100020086
:1009B0000400060008000A000C001000200040009F
:1009C000800000012821415C090706D501684B68B9
:1009D000644A1A40836B13434B602821415CC9076A
:1009E00006D501684B68604A1A40C36A13434B60DE
:1009F0002821415C890706D501684B685B4A1A408B
:100A0000036B13434B602821415C490706D50168FD
:100A10004B68574A1A40436B13434B602821415C93
:100A2000C90606D501688B68524A1A40C36B134346
:100A30008B602821415C890606D501688B68774A5E
:100A40001A40036C13438B602821415C490611D581
:100A500001684B68724A1A40436C13434B60436C05
:100A600080225203934205D14B686E4A1A40836C30
:100A700013434B602821415C090606D501684B6889
:100A8000694A1A40C06C104348607047F369FFCF51
:100A9000FFCFFFFFFFF4FF11541002400038014068
:100AA000FEB50600370084370024FC60FFF7FCFD2C
:100AB0000190202530680068000717D55B4800903A
:100AC000019B00222904300000F056F800280DD0C8
:100AD000EFF31080012181F31088336819688022B8
:100AE0009143196080F310887D6026E030680068CB
:100AF000400725D54D480090019B00226904300035
:100B000000F03AF800281BD0EFF31083012080F3A7
:100B1000108830680168464A0A40026083F31088F2
:100B2000EFF31080012181F3108833689968012266
:100B30009143996080F31088BD603C700320FEBD36
:100B40007D60BD60F46634673C700020FEBD00002F
:100B50000044004000480040004C00400024F400E5
:100B6000F0FF0000FF7FFFFFFFFFFDFFFFFFFEFF25
:100B7000FFFFFBFFFFEFFFFFFEB580273F010826C9
:100B80000024050001916846027002932868C1693B
:100B9000019808400199884201D1012000E000201D
:100BA00069460978884236D108980021C9438842AD
:100BB000ECD0FFF779FD0299401A0899814201D3E0
:100BC000002901D10320FEBD286800684007DDD55B
:100BD00001988028DAD04028D8D02868C0693040F1
:100BE000286803D1C0693840D0D009E006622800E7
:100BF00000F020F828008430C66004700120FEBD9B
:100C000028680762280000F015F8280084302021A9
:100C1000C1600470D6E70020FEBD0000FFDFFFFFCB
:100C2000FFFFEFFFFFFF9FFFFFFFF7FFFFFFFF014A
:100C3000DFFEFFFF10B5EFF31081012282F3108871
:100C400004682268134B1340236081F31088EFF38C
:100C50001081012282F310880468A2680E4B1340B1
:100C6000A36081F31088C16E01290BD1EFF31081CD
:100C7000012282F310880468226810239A432260BC
:100C800081F3108820228C2142500021C1664167E7
:100C900010BD0000DFFEFFFFFEFFFFEF81B0274821
:100CA000012142680A434260426811400091009964
:100CB0008021490502680A430260006801400091F2
:100CC000009801B0704730B58DB0040014210022A7
:100CD00001A800F039F81C21002206A800F034F821
:100CE00021681748814226D10224069400250895E0
:100CF00006A800F02FF8002801D000F084F911496F
:100D000020048A6802438A608A6810400090009834
:100D100001200A6802430A600968014000910099B5
:100D20000C210191029403900495059001A9A02043
:100D3000C00500F06BF90DB030BD00003C10024062
:100D40000044004034100240094202D0491E42547F
:100D5000FCD17047FEB506000020694608704E4C75
:100D60003168890355D5019080204005216B0140F1
:100D700008D1216B01432163216B08400190019848
:100D80000120019045480168800D084343490860EF
:100D9000FFF78AFC050041480068C00505D4FFF74D
:100DA00083FC401B0328F6D323E0216DC020800084
:100DB00008403B4F00280ED0B16988420BD0206D0F
:100DC0003840226D8021490211432165216D354A49
:100DD0000A4022652065C0070FD5FFF765FC0500B6
:100DE000206D800709D4FFF75FFC411B2E4881422C
:100DF000F6D303206946087004E0206D0740B0690F
:100E0000384320650198002803D0206B2749014012
:100E100021633078C00705D5A06C03218843716831
:100E20000143A1643078800705D5A06C0C2188436C
:100E3000B1680143A1643078800605D5A16C1C48D7
:100E40000840F1680143A1648020C001316801407D
:100E50000DD0A16C8A00920871691143A164726976
:100E600001048A4203D12268810011432160316864
:100E700009050DD5A26C0F49114032690A43A264DD
:100E80003169814204D120688021490201432160F7
:100E900068460078FEBD00000C1002400070004063
:100EA000FFFCFFFFFFFFFEFF89130000FFFFFFEFC6
:100EB000FFCFFFFFFF3FFFFF08B4024B9C4608BC7B
:100EC0006047C0461100002070B586B000F060F9A0
:100ED00000F06AF81421002201A8FFF735FF042171
:100EE0002E4802680A43026002681140009100998E
:100EF000202501682943016001682940009100997B
:100F0000012401682143016000682040009000989E
:100F1000A026F60500222021300000F027F90195D7
:100F20000294002403940220049001A9300000F0F0
:100F30006DF81B4D1B482860E12040026860AC60E2
:100F4000EC602C610C206861AC61EC612C626C621D
:100F5000AC622800FFF742FC002801D000F053F8F3
:100F60000021280000F045F9002801D000F04BF8DE
:100F70000021280000F057F9002801D000F043F8C4
:100F8000280000F019F9002801D000F03CF8FFF724
:100F900093FFFA20800000F09DF9F8E7341002403A
:100FA000200000200044004018B591B034210022F8
:100FB00004A8FFF7C9FE102100226846FFF7C4FE0F
:100FC0008020800000F09AF902200490FE30079003
:100FD00000240894402009900B9404A8FFF76CF8B3
:100FE000002801D000F00FF807200090019402942F
:100FF000039400216846FFF741FA002801D000F071
:1010000002F812B010BD72B6FEE7FEE7FFB50F237F
:1010100002930700080000212CE0052502E0564E4F
:10102000B742FAD1A5401D43009B1D60534B1C687D
:10103000D3431C404568ED0200D514434F4E346045
:1010400074681C404568AD0200D5144374604C4C74
:1010500064681C404568AD0300D51443484D6C607E
:101060002C6823404468E40302D51C00130023438A
:101070002B60491C02681300CB4076D001248C40C1
:101080002240F6D04B0003259D40EE430196456873
:10109000AE07B60F012E03D0AD07AD0F022D0ED156
:1010A000BD68019E2E40C5689D403543BD607D688A
:1010B000A5434468E606F60F8E402E437E60047911
:1010C000A407A40F032C25D0FD68019C2C40856843
:1010D0009D402543FD600479A407A40F022C19D17B
:1010E000CC08A4003C19256A03958D001C262E40CF
:1010F0006D462E70039EB446029D6E463678B5400E
:101100006646AE43B44606696D462D78AE406546E8
:101110002E4326623C680325019E264044682C40ED
:101120009C4034433C6044682B042340A1D0154BC1
:101130008C08A4001B190093009B1B68CE00182488
:101140003440029EA640B343A026F605B74201D123
:10115000002567E70C4EB74201D1012562E70B4E2F
:10116000B74200D05BE702255CE7FFBD002A01D053
:101170008161704781627047000C00500018024086
:10118000801802406018024000040050000800501F
:1011900010B50024074A1068910D0143116000202A
:1011A000FFF7B8FA002801D0012401E0FFF776FD2F
:1011B000200010BD0020024030B5010084310A78C3
:1011C000012A01D1022030BD01220A7024224A6086
:1011D00005682A682B680124A3432B60002343661B
:1011E000234C144000680460202048600B700020ED
:1011F00030BD70B50400260084363078012801D156
:10120000022070BD012030702420706023681D68AA
:10121000186801229043186020688268D200D208C2
:101220001143816018E070B50400260084363078E0
:10123000012801D1022070BD01203070242070608F
:1012400023681D6818680122904318602368986815
:10125000084A024011439960200000F00DF8206810
:101260000560202070600020307070BD000000001C
:10127000FFFFFFDFFFFFFFF1F8B50400606E0028FD
:1012800002D10120012517E0206881680901490F7A
:1012900000918068410F00BF0CA700BF09A6705CD9
:1012A000C000795CFFF706FA05000098305CC000CA
:1012B0000099795CFFF7FEF9210068314D800880C4
:1012C000F1BD000001010103070100000804020450
:1012D0000801010138B50400FFF7E6F90500002018
:1012E000C043844202D0044800782418FFF7DCF998
:1012F000401BA042FAD331BD0000002010B50E4CB7
:1013000022680E49114001432160610D884210D1CD
:101310000B480068062148430A49FFF7DFF9401CE3
:1013200000E0401E6169490503D50028F9D103207A
:1013300010BD002010BD000000700040FFF9FFFF4D
:101340000C00002040420F000000000000000000E0
:10135000000000000000000000000000000000008D
:10136000000000000000000001000000020000007A
:101370000300000004000000060000000700000059
:10138000080000000900000070B40121002213E0F1
:101390000368001D0B4202D04D46EB185B1E1A601D
:1013A0001B1D241F042CFAD21D00A60701D51A808C
:1013B000AD1C0C4000D02A700468001D002CE7D141
:1013C00070BC704730B401210EE00368C318446854
:1013D00008300C4202D04D462C19641E1D68256051
:1013E0001B1D241D121FF9D10268001D002AECD11B
:1013F00030BC704710B5034A7A440832024C7C4432
:10140000A41D03E01C0000003C00000004E0101DCF
:101410001168511888470200A242F8D110BD00009F
:1014200069FFFFFF94000000200000200000000082
:1014300095FFFFFF200000003000000000000020AA
:1014400000000000FEE700000000000000000000B7
:101450000000000000000000010000000200000089
:101460000300000004000000010000000000000074
:10147000040000000024F400024A106820214140CA
:10148000116070471400005000F00DF8002801D0E2
:10149000FFF7B0FF00BF00BF002000BF00BFFFF795
:1014A00013FD00F002F80120704780B500F002F84B
:1014B00001BDFEE70746384600F002F8FBE7FEE70D
:1014C00080B500BF00BF024A11001820ABBEFBE789
:1014D000260002000548014603B4684680F30988E7
:1014E00000BF00BF00BF00BFFFF7CEFFA5EDF5FEB8
:1014F00001488047014800474D150008D5140008F1
:10150000024842680178511841607047000000208D
:10151000FEE7FEE77047704780B5FFF7F1FF01BDBA
:10152000FEE7FEE7FEE7FEE7FEE7FEE7FEE7FEE793
:10153000FEE7FEE7FEE7FEE7FEE7FEE7FEE7FEE783
:0E154000FEE7FEE7FEE7FEE7FEE7000070476D
:04000005080014D506
:00000001FF
